:0A000000A028000000000000AD2958
:0E000A008312031328088A00270882000800CA
:100018008B1683120313A201A30180302306F0007C
:1000280080302C067002031D1B282B08220203189F
:0A0038001E281128C0308B000800BC
:10004200831203132408013A031D3B28293086003A
:10005200993088002408053A031930282B28A10179
:1000620088308600883088006430AB000030AC00F5
:100072000C2021282408023A031D532892308600BE
:10008200993088002408053A031948284328A10119
:1000920088308600883088006430AB000030AC00C5
:1000A2000C203B282408033A031D6B289930860054
:1000B200293088002408053A031960285B28A10129
:1000C20088308600883088006430AB000030AC0095
:1000D2000C2053282408043A031D832899308600F3
:1000E200923088002408053A031978287328A10160
:1000F20088308600883088006430AB000030AC0065
:060102000C206B28080030
:100108008030831603138700333099002430980019
:10011800903083129800C0308B0483168C16080028
:1001280005208A110A128000840AA70A0319A80A5E
:08013800F003031D94280800E8
:1001400083120313A101A201A301A40107308316A6
:10015000810086018801831286018801842006308F
:100160009F00883083128600883088000A30AB00F8
:100170000030AC000C202830210486008830210497
:100180008800E830AB000330AC000C20A501A601CC
:1001900080302606F00080307002031DD128033025
:1001A00025020318E7280830210486003230AB000E
:1001B0000030AC000C202830210486003230AB0027
:1001C0000030AC000C20A50A0319A60AC828483044
:1001D00021048600C830AB00AC010C20883021041B
:1001E00086006430AB000030AC000C20212082304F
:1001F00021048600883021048800E830AB000330F9
:10020000AC000C20A501A60180302606F00080304D
:100210007002031D0D2903302502031823298030A5
:10022000210486003230AB000030AC000C2082305C
:10023000210486003230AB000030AC000C20A50A4F
:100240000319A60A0429843021048600C830AB00B3
:10025000AC010C208830210486006430AB000030F3
:10026000AC000C2021208830210486002830210495
:100270008800E830AB000330AC000C20A501A601DB
:1002800080302606F00080307002031D49290330BB
:10029000250203185F290830210488003230AB00A2
:1002A0000030AC000C202830210488003230AB0034
:1002B0000030AC000C20A50A0319A60A40294830DA
:1002C00021048800C830AB00AC010C208830210428
:1002D00088006430AB000030AC000C202120883056
:1002E00021048600823021048800E830AB0003300E
:1002F000AC000C20A501A60180302606F00080305D
:100300007002031D85290330250203189B298030C4
:10031000210488003230AB000030AC000C20823069
:10032000210488003230AB000030AC000C20A50A5C
:100330000319A60A7C29843021048800C830AB0048
:10034000AC010C208830210488006430AB00003000
:0A035000AC000C202120BB28AC29D2
:10035A00FF00030E8301A9000A08AA008A01700897
:10036A00A0000B1DBF29FB308B05A20A0319A30AA3
:10037A00AF3081008C1CCA291A08A40011308604E7
:10038A00113088041130A1008C012008F0002A08DD
:0C039A008A00290E8300FF0E7F0E090070
:02400E004A2F37
:00000001FF
