:0A0000003D280000000000008A28DF
:0E000A008312031324088A00230882000800D2
:10001800803083160313870033309900243098000A
:10002800903083129800C0308B0483168C16080019
:1000380083160313981821281C288312270899006F
:100048000330FB000830FC007730FD00FD0B2A2848
:0A005800FC0B2A28FB0B2A280800E5
:1000620005208A110A128000840AA30A0319A40A2D
:08007200F003031D3128080012
:10007A0083120313A101A2010730831681008312A0
:10008A008601FE308316860088010C208312861CA6
:10009A005B280130A7000030A8001C20861A5628C9
:1000AA0053280530A7000030A8001C20061D6A2826
:1000BA000230A7000030A8001C20861A6528622892
:1000CA000530A7000030A8001C20861D79280330BF
:1000DA00A7000030A8001C20861A74287128053051
:1000EA00A7000030A8001C20061E88280430A7009C
:1000FA000030A8001C20861A832880280530A70013
:0A010A000030A8001C204B288928B3
:10011400FF00030E8301A5000A08A6008A017008E7
:10012400A0000B1D9C28FB308B05A10A0319A20A11
:10013400AF3081002008F00026088A00250E8300D5
:06014400FF0E7F0E090012
:02400E004A2F37
:00000001FF
